:10000000A9C00000C2C00000C0C00000BEC0000007
:10001000BCC00000BAC00000B8C00000B6C00000FC
:10002000B4C00000B2C0000068C40000AEC0000050
:10003000ACC00000AAC00000A8C00000A6C000001C
:10004000A4C00000A2C00000A0C000009EC000002C
:100050009CC000009AC0000098C0000096C000003C
:1000600094C0000092C0000090C000008EC000004C
:100070008CC000008AC0000088C0000086C000005C
:1000800084C0000082C0000080C000007EC000006C
:100090007CC000007AC0000078C0000076C000007C
:1000A00074C0000072C0000070C000002C034C003F
:1000B0005500460041002000470065006E006500C5
:1000C00072006900630020004800490044002000DD
:1000D000440065006D006F000000180344006500D7
:1000E00061006E002000430061006D006500720039
:1000F000610000000403090409022900010100C095
:10010000320904000002030000000921110100016E
:1001100022200007058103080005070502030800E7
:10012000051201100100000008EB034F200100013F
:100130000200010600FF0901A1010902150025FFC7
:100140007508950881020903150025FF75089508B3
:100150009102C00011241FBECFEFDAE0DEBFCDBF99
:1001600011E0A0E0B1E0E6E6FDE002C005900D92EE
:10017000A030B107D9F721E0A0E0B1E001C01D92A5
:10018000AD30B207E1F73CD1ECC53ACF292F332788
:1001900023303105B9F05CF42130310569F12230AA
:1001A000310579F589E290E028EF30E02EC0213268
:1001B0003105E9F02232310521F580E290E023E3B8
:1001C00031E023C099278130910541F082309105BB
:1001D00041F0892BB1F4E4EFF0E005C0EAEDF0E086
:1001E00002C0ECEAF0E0849190E09F010EC089E04B
:1001F00090E02AE031E009C082E190E021E231E0C4
:1002000004C080E090E020E030E0FA0131832083F8
:10021000089525B1982F917090952160922395B9FA
:100220002BB1982F90729095206292239BB998B130
:1002300080789F77892B88B9089584B7877F84BF9A
:1002400088E10FB6F89480936000109260000FBEB2
:1002500090E080E80FB6F89480936100909361007D
:100260000FBE209A289A559A5D9A3F9A479828C3BC
:1002700080EACFCF81E0CDCFCF9342E061EC81E047
:1002800059D2C82F42E060EC82E054D2882321F09A
:10029000CC2311F080E201C081E8CF91BACFFC01FC
:1002A00081E09081911101C080E091819111806283
:1002B000928191118068ADCFFC0195B18BB128B1CD
:1002C000809580722078822B90959170892B9083F5
:1002D00085FB992790F99183881F8827881F82833F
:1002E00013820895CF93DF93CDB7DEB728970FB66B
:1002F000F894DEBF0FBECDBF80910601813019F0AA
:100300008930C1F02DC080910501813A49F5CE01B7
:100310000196D2DF8091E800877F8093E80068E053
:1003200070E0CE01019603D18091E8008B77809335
:10033000E80016C080910501813291F48091E800B7
:10034000877F8093E80068E070E0CE01019650D18D
:100350008091E8008E778093E800CE0101969FDFC0
:1003600028960FB6F894DEBF0FBECDBFDF91CF91B8
:100370000895CF93DF93CDB7DEB728970FB6F894E3
:10038000DEBF0FBECDBF80910401843081F582E0D5
:100390008093E9008091E80082FF13C08091E8001B
:1003A00085FF0AC040E050E068E070E0CE010196B1
:1003B00076D0CE01019673DF8091E8008B77809331
:1003C000E80081E08093E9008091E80080FF0FC0A1
:1003D000CE01019671DF40E050E068E070E0CE01B0
:1003E000019615D08091E8008E778093E8002896DA
:1003F0000FB6F894DEBF0FBECDBFDF91CF91089549
:100400001CDF81E006DF7894B4DF8FD4FDCFCF927C
:10041000DF92EF92FF920F931F93CF93DF937C01B4
:100420008B01EA01DDD1811131C0209731F0888143
:100430009981081B190BE80EF91EC12CD12C01154E
:10044000110519F18091E80085FD14C08091E80044
:100450008E778093E80069D4209741F08881998154
:100460008C0D9D1D9983888385E010C0B9D18823A8
:1004700031F30CC0F70181917F018093F1000150AD
:100480001109FFEFCF1ADF0ADACF80E0DF91CF91B9
:100490001F910F91FF90EF90DF90CF900895CF9232
:1004A000DF92EF92FF920F931F93CF93DF937C0124
:1004B0008B01EA0195D1811131C0209731F08881FB
:1004C0009981081B190BE80EF91EC12CD12C0115BE
:1004D000110519F18091E80085FD14C08091E800B4
:1004E0008B778093E80021D4209741F0888199810F
:1004F0008C0D9D1D9983888385E010C071D1882360
:1005000031F30CC08091F100F70181937F0101501C
:100510001109FFEFCF1ADF0ADACF80E0DF91CF9128
:100520001F910F91FF90EF90DF90CF900895209151
:100530000B0130910C012617370748F06115710542
:1005400039F42091E8002E772093E80001C0B9012A
:10055000FC0120E061157105B9F180910401882347
:1005600009F440C0853009F43FC08091E80083FD64
:100570003DC08091E80082FF06C08091E80082FFC4
:1005800026C080E008958091E80080FFE3CF2091AD
:10059000F3008091F20090E0922B6115710551F00B
:1005A0008830910538F421912093F1006150710950
:1005B0000196F3CF21E0089709F020E08091E80050
:1005C0008E778093E800C6CF2111C7CFD6CF809118
:1005D0000401882339F0853039F08091E80083FFE9
:1005E000CCCF04C082E0089583E0089581E00895AF
:1005F0006115710529F42091E8002B772093E8001C
:100600006115710541F120910401222369F1253022
:1006100069F12091E80023FD23C02091E80022FF2A
:10062000F2CFFC01CF014091F3002091F20030E0C5
:10063000342B232B01F38091F1008193CF01615082
:1006400071096115710571F7D6CF80910401882376
:1006500059F0853059F08091E80080FFF6CF02C054
:1006600081E0089580E0089582E0089583E0089590
:1006700020910B0130910C012617370748F06115C6
:10068000710539F42091E8002E772093E80001C02D
:10069000B901FC0120E061157105C1F180910401EF
:1006A000882309F441C0853009F440C08091E800F6
:1006B00083FD3EC08091E80082FF06C08091E80083
:1006C00082FF27C080E008958091E80080FFE3CF9B
:1006D0002091F3008091F20090E0922B611571055A
:1006E00059F08830910540F424912093F10031961F
:1006F000615071090196F2CF21E0089709F020E0DE
:100700008091E8008E778093E800C5CF2111C6CF95
:10071000D5CF80910401882339F0853039F080915C
:10072000E80083FFCBCF04C082E0089583E0089502
:1007300081E00895982F973058F59093E900981725
:1007400039F07091EC002091ED005091F00003C061
:10075000242F762F50E021FF19C03091EB003E7F0F
:100760003093EB003091ED003D7F3093ED00309100
:10077000EB0031603093EB007093EC002093ED00C0
:100780005093F0002091EE0027FF07C09F5FD3CF6A
:100790008F708093E90081E0089580E00895809152
:1007A000050187FD05C08091E80080FF0EC012C0E2
:1007B0008091E80082FD05C0809104018111F8CF8D
:1007C00008958091E8008B7708C080910401811121
:1007D000EACF08958091E8008E778093E80008952D
:1007E0008091E4009091E50045E62091EC0020FF27
:1007F00021C02091E80020FD21C020910401222386
:1008000089F0253089F02091EB0025FD0FC0209163
:10081000E4003091E5002817390739F3415041F0E1
:10082000C901E3CF82E0089583E0089581E008954F
:1008300084E008952091E80022FFDFCF80E0089552
:100840000F931F93CF93DF934BD052D0C8EDD0E0DE
:1008500088818F77888388818068888388818F7D6D
:10086000888319BC109204011092000110920201B9
:100870001092010100EE10E0F80180818B7F8083EF
:1008800088818160888342E060E080E053DFE1EEB0
:10089000F0E080818E7F8083E2EEF0E080818160F5
:1008A0008083808188608083F80180818E7F80834F
:1008B000888180618883DF91CF911F910F91089586
:1008C000E8EDF0E080818F7E8083E7EDF0E08081CD
:1008D0008160808384E082BF81E080930301B0CF98
:1008E000E8EDF0E080818E7F80831092E200089531
:1008F0001092DA001092E10008951F920F920FB645
:100900000F9211242F933F934F935F936F937F9395
:100910008F939F93AF93BF93EF93FF938091E100E9
:1009200082FF0AC08091E20082FF06C08091E10050
:100930008B7F8093E100F8D18091DA0080FF1DC0A9
:100940008091D80080FF19C08091DA008E7F80935B
:10095000DA008091D90080FF0CC080E189BD82E17E
:1009600089BD09B400FEFDCF81E08093040180DCE5
:1009700004C019BC109204017DDC8091E10080FF6D
:1009800018C08091E20080FF14C08091E2008E7F49
:100990008093E2008091E20080618093E200809188
:1009A000D80080628093D80019BC85E08093040150
:1009B000BBD18091E10084FF2FC08091E20084FFD1
:1009C0002BC080E189BD82E189BD09B400FEFDCF65
:1009D0008091D8008F7D8093D8008091E1008F7E38
:1009E0008093E1008091E2008F7E8093E20080910D
:1009F000E20081608093E20080910001882311F081
:100A000084E007C08091E30087FF02C083E001C05B
:100A100081E08093040188D18091E10083FF22C0AE
:100A20008091E20083FF1EC08091E100877F809368
:100A3000E10082E080930401109200018091E100C6
:100A40008E7F8093E1008091E2008E7F8093E200B0
:100A50008091E20080618093E20042E060E080E00B
:100A600069DE62D1FF91EF91BF91AF919F918F911C
:100A70007F916F915F914F913F912F910F900FBE9A
:100A80000F901F9018951F93CF93DF93CDB7DEB7CC
:100A9000AA970FB6F894DEBF0FBECDBFE5E0F1E038
:100AA0008091F100819321E0ED30F207C9F71ADC63
:100AB0008091E80083FF20C190910501809106019B
:100AC000853009F477C030F4813081F168F08330EB
:100AD00069F112C1883009F4E1C0893009F4F0C02D
:100AE000863009F009C188C0903881F0923809F049
:100AF00003C1809109018F708093E9008091EB0020
:100B000085FB882780F91092E90006C080910101D9
:100B100090910201911182609091E800977F9093EB
:100B2000E8008093F1001092F100C3C0292F2D7FBF
:100B300009F0E2C0992319F0923061F0DDC0909184
:100B40000701913009F0D8C0833009F090E090930C
:100B500002012AC090910701911126C0209109013C
:100B60002F7009F4C9C02093E9009091EB0090FF29
:100B70001BC0833021F48091EB00806213C0809110
:100B8000EB0080618093EB0081E090E0022E01C0D9
:100B9000880F0A94EAF78093EA001092EA008091A5
:100BA000EB0088608093EB001092E9008091E800F0
:100BB000877F82C09111A0C0109107011F7780919B
:100BC000E3008078812B8093E3008091E800877FA9
:100BD0008093E800E4DD8091E80080FFFCCF809105
:100BE000E30080688093E300112311F083E001C0EB
:100BF00082E08093040180C09058923008F07CC05D
:100C000080910701909108018C3D23E0920771F5D6
:100C100083E08A838AE289834FB7F894DE011396D2
:100C200020E03EE051E2E32FF0E050935700E491E2
:100C300020FF03C0E295EF703F5FEF708E2F90E0D2
:100C4000EA3010F0C79601C0C0968D939D932F5F38
:100C5000243149F74FBF8091E800877F8093E800F7
:100C60006AE270E0CE01019662DC12C0AE014F5F15
:100C70005F4F609109018ADA009709F43DC0209125
:100C8000E800277F2093E800BC0189819A81F0DC8D
:100C90008091E8008B778093E8002EC0903861F552
:100CA0008091E800877F8093E80080910001809325
:100CB000F1008091E8008E778093E80070DD1CC021
:100CC00091111AC0909107019230B0F48091E80020
:100CD000877F8093E8009093000161DD809100019F
:100CE000811104C08091E30087FF02C084E001C04D
:100CF00081E080930401C0DA8091E80083FF0AC09C
:100D00008091E800877F8093E8008091EB0080620B
:100D10008093EB00AA960FB6F894DEBF0FBECDBF4E
:100D2000DF91CF911F9108950895CF938091040191
:100D30008823A9F08091E9008F709091EC0090FFDA
:100D400002C090E801C090E0C92FC82B1092E900C2
:100D50008091E80083FD97DECF70C093E900CF91CA
:060D60000895F894FFCF96
:00000001FF
